:020000040000FA
:060000000A128A11EE2F26
:100D66000A128A11EA260A128A118316031311142B
:100D760008000A128A11EA260A128A118316031338
:100D860011150800F00083160313981CCB2ECC2EE9
:100D9600C62E7008831203139900080031340034FC
:100DA600323400342E3400343334003434340034D6
:100DB6000D34003428308312031394008316031372
:100DC60091019401093093008715071608008316D0
:100DD60003131419EF2EF02EEA2E11081F39031DE6
:100DE600F52EF62EEA2E0800831603131815193071
:100DF6009900181283120313981783160313071703
:100E060098160800F0000A128A11EA260A128A11B8
:100E160070088312031393000A128A11EA260A1233
:100E26008A1108007E088A007F0882000A128A1149
:100E360015270A128A118000840A04087D06031900
:100E46000034FF0A0319FE0A192F0A128A11EA262C
:100E56000A128A118316031391150A128A11EA26B9
:100E66000A128A11831203131308F200F30172089F
:100E7600F4007308F5000A128A11EA260A128A118A
:100E860083160313911611167508F1007408F00005
:100E96000800FF308316031386000A128A11DD2626
:100EA6000A128A110A128A11F7260A128A112030AA
:100EB60084003030F6000408F7000C30F80076089D
:100EC600840083130008F900F60A7708840079087D
:100ED6008000F70AF80B622F83120313861B742F08
:100EE600752FAE2F861F782F792F752FAE01AF0184
:100EF6000A128A11B3260A128A1140300A128A117E
:100F060005270A128A11831203132E08F6007607A4
:100F1600203E8400831300080A128A1105270A124C
:100F26008A110A128A11BC260A128A11013083120A
:100F36000313AE070318AF0A0030AF072F08803A35
:100F4600FF0080307F02031DAA2F06302E02031CED
:100F5600AD2FAE2F7B2F83120313061BB32FB42F97
:100F66006F2F061FB72FB82FB42FAC01AD010A1291
:100F76008A11B3260A128A1141300A128A110527EC
:100F86000A128A110A128A1128270A128A1170086F
:100F96000A128A11C5260A128A110A128A11BC2659
:100FA6000A128A11013083120313AC070318AD0A23
:100FB6000030AD072D08803AFF0080307F02031D08
:100FC600E62F06302C02031CE92FEA2FBA2F6F2FCB
:100FD6000A128A11002883133C30FD000630FE00F9
:100FE600D130FF00303084000A128A1119270A1204
:0A0FF6008A1183010A128A114C2FA0
:00000001FF
