:020000040000FA
:060000000A128A110E280D
:10000800FE00030EF4000408F5000A08F6000A12C0
:100018008A1133280A128A11112883132C30FD0003
:100028000130FE003330FF00203084000A128A11AC
:1000380007210A128A11AC01AD01AE01AF01B0016E
:10004800B101B201B301B401B501F701F801F90139
:10005800FA01FB01FC0183010A128A111629831295
:1000680003138C1D38283928DE281412141B3D2848
:100078003E284228941F412842284C281308F100A2
:10008800F2017108F7007208F8001413941314169B
:1000980083160313941A51285228892814195528AD
:1000A80056288928831203131308F100F2017108F6
:1000B800F7007208F80083160313141C64286528D7
:1000C8005F287B082C3E84008312031313088313D4
:1000D80080007B082C3E840000080A128A113F2108
:1000E8000A128A110130FB070318FC0A0030FC07CA
:1000F80006307B067C04031D822883288528FB01A3
:10010800FC01831203131416DC28941A8C288D28FA
:10011800DC28141D90289128DC2883120313130867
:10012800F100F2017108F7007208F8008316031352
:100138001410033079067A040319A328A428AB28DD
:10014800043079067A04031DAA28AB28BC2879084C
:100158002C3E840083130008F100F2017908F300B3
:100168007307203E840071088000840A72088000AA
:100178007908F1007107203E840083130008831278
:10018800031393000130F9070318FA0A0030FA073D
:10019800063079067A04031DD228D328D528F90118
:1001A800FA011416831603131418DB28DC28D62842
:1001B80083128C1176088A0075088400740E8300F7
:1001C800FE0E7E0E090083120313B600360883164E
:1001D8000313930080309400363083120313940085
:1001E8000130831603139100871507168B170B1719
:1001F800831203138C11831603138C1508007E08D1
:100208008A007F0882000A128A1103210A128A11C1
:100218008000840A04087D0603190034FF0A0319C4
:10022800FE0A072940300A128A11E7200A128A11A9
:100238000A128A1125210A128A1121290A128A1101
:100248000E288316031318151930990018128312F3
:1002580003139817831603130717981608003534E5
:100268000034363400342E34003400340034003482
:1002780000340D340034F00083160313981C45290C
:0E0288004629402970088312031399000800CC
:00000001FF
